:020000040800F2
:100000000018002029020008890400083F040008A5
:1000100085040008A1030008D716000800000000AE
:100020000000000000000000000000004D14000867
:10003000A503000800000000B902000865150008CB
:10004000430200084302000843020008430200087C
:10005000430200084302000843020008430200086C
:10006000430200084302000843020008430200085C
:10007000430200084302000843020008430200084C
:10008000430200084302000843020008430200083C
:10009000430200084302000843020008430200082C
:1000A000430200084302000843020008430200081C
:1000B000430200084302000843020008430200080C
:1000C00043020008430200084302000843020008FC
:1000D00043020008E9150008430200084302000833
:1000E00043020008430200084302000843020008DC
:1000F00043020008430200084302000843020008CC
:1001000043020008430200084302000843020008BB
:1001100043020008430200084302000843020008AB
:10012000430200084302000843020008430200089B
:10013000430200084302000843020008430200088B
:10014000430200084302000843020008430200087B
:10015000430200084302000843020008430200086B
:10016000430200084302000843020008430200085B
:10017000430200084302000843020008430200084B
:10018000430200084302000800F002F800F03CF8C7
:100190000AA090E8000C82448344AAF10107DA45E2
:1001A00001D100F031F8AFF2090EBAE80F0013F0F8
:1001B000010F18BFFB1A43F0010318471418000081
:1001C00034180000103A24BF78C878C1FAD8520712
:1001D00024BF30C830C144BF04680C6070470000C1
:1001E0000023002400250026103A28BF78C1FBD840
:1001F000520728BF30C148BF0B6070471FB501F0E0
:1002000061FB1FBD10B510BD00F097F81146FFF758
:10021000F5FF01F01DFB00F0B5F803B4FFF7F2FFA6
:1002200003BC01F05AFA000009488047094800471A
:10023000FEE7FEE7FEE7FEE7FEE7FEE7FEE7FEE796
:10024000FEE7FEE704480549054A064B70470000F3
:100250008115000889010008001200200018002004
:100260000014002000140020EFF3108072B67047D5
:1002700080F310887047264C4FF6FF7525604FF0CD
:10028000000484F30988234C4FF001052570224CAB
:100290004FF08055256062B6FEE730B41E4C4FF03B
:1002A0008055256030BC704730B41B4C4FF08055F2
:1002B000256030BC704700BF72B6EFF3098050B1C3
:1002C0001EF0100F08BF20ED108A203880E8F00FD4
:1002D00012490968086000B5114880475DF804EBD1
:1002E000104811490A7802700C4810490A680260E7
:1002F000106890E8F00F20301EF0100F08BFB0EC2F
:10030000108A80F309884EF0040E62B6704700BF71
:1003100022ED00E03200002004ED00E03800002073
:10032000B50C000827000020280000204000002015
:1003300070477047704770477047754600F02CF85B
:10034000AE4605006946534620F00700854618B0C2
:1003500020B5FFF777FFBDE820404FF000064FF0D3
:1003600000074FF000084FF0000B21F00701AC46EA
:10037000ACE8C009ACE8C009ACE8C009ACE8C00909
:100380008D46704710B50446AFF300802046BDE8A7
:100390001040FFF742BF0000004870479C1100204A
:1003A00000BFFEE77047F0B50A4600210023002495
:1003B00000BF3DE0012505FA01F3156805EA0304D5
:1003C0009C4234D105684F000326BE40B54305600A
:1003D00015794E00B5400668354305601579012D45
:1003E00002D01579022D16D185684F000326BE4034
:1003F000B543856055794E00B540866835438560C4
:10040000456801268E40B5434560456896798E4023
:10041000B6B235434560C5684F000326BE40B543BC
:10042000C560D5794E00B540C6683543C560491CE6
:100430001029BFD3F0BD418370470183704700BFCF
:10044000FEE700001CB50121202000F0EFFF4FF473
:10045000C060009001208DF8040000208DF8060097
:1004600003208DF8050001208DF807006946044837
:10047000FFF799FF4FF4C0610148FFF7DEFF1CBD95
:100480000014024000BFFEE7704710B500F013F8FB
:1004900000F044FD00F06CFD00F08CFD00F014FD58
:1004A00000F0D4FC00F020FE00F0C4FD00F0EAFDF6
:1004B00000F002F810BD7047704700000648007851
:1004C000012808D105480078FF2804D203480078A5
:1004D000401C0249087070473200002025000020AF
:1004E00010B500241A480078012830D1FFF7BCFE6F
:1004F00004461848007820B116480078401E154977
:10050000087014480078F8B913480078E0B900F092
:100510004DFE12481249097850F82100114908602F
:100520000F4800781049097888420DD00D480068BE
:10053000806B401C0B49096888630C480068401CAC
:100540000A490860FFF7B0FE2046FFF791FE10BD94
:10055000320000202500002026000020340C00205E
:100560002800002040000020270000200C00002070
:1005700010B500240B480078012811D1FFF774FE54
:1005800004460948007840B908480078FF2804D29A
:1005900006480078401C054908702046FFF768FEB1
:1005A00010BD0000320000202500002026000020A1
:1005B00010B5002413480078012821D1FFF754FE1C
:1005C000044611480078C0B10F480078401E0E491B
:1005D00008700846007860B90C48007828B92046B1
:1005E000FFF746FE00F0A8FD0AE02046FFF740FEB8
:1005F00006E02046FFF73CFE02E02046FFF738FE0B
:1006000010BD000032000020260000202500002040
:1006100010B50B48007890B900F0C8FD0948007883
:100620000949087009480749097850F82100084924
:1006300008600846006807490860FFF71CFE10BD07
:10064000320000202800002027000020340C002069
:10065000400000203800002010B50024022000F0E7
:100660002BFBFFF701FE044600200B4908602046E3
:10067000FFF7FEFD142000F01FFBFFF7F5FD044619
:1006800005480068054908600120054908702046B2
:10069000FFF7EEFD10BD0000340000201C0000201C
:1006A00024000020704700002DE9FE4F06460F464B
:1006B00090461C464FF00009FFF7D6FD81461F48C3
:1006C000007828B14846FFF7D3FD3C20BDE8FE8FF7
:1006D0001B4850F8240060BB0120194941F8240050
:1006E0004846FFF7C5FD002342463946304600F034
:1006F000B5F982460020009001900346024651461B
:100700000290204600F068FD054635B90D48007896
:1007100001280CD100F010FD09E0FFF7A5FD81468E
:100720000020074941F824004846FFF7A1FD28466C
:10073000CCE74846FFF79CFD2820C7E725000020AE
:10074000340C0020320000202DE9F04F85B08146A6
:100750008A4693461C46DDE90F78129D00200390DF
:10076000FFF782FD03902348007830B10398FFF72C
:100770007FFD3C2005B0BDE8F08F1F4850F82400F5
:1007800088BB01201C4941F824000398FFF770FD45
:100790002A464146384600F03BFE2B465A46514613
:1007A000484600F05BF904901198CDE9008002956D
:1007B0003A4620460E9B049900F00EFD064636B9D7
:1007C0000E48007801280CD100F0B6FC09E0FFF7D4
:1007D0004BFD03900020084941F824000398FFF7DF
:1007E00047FD3046C6E7FFE70398FFF741FD2820A5
:1007F000C0E7000025000020340C0020320000205B
:10080000704700002DE9F041054600274748007871
:1008100010B14020BDE8F0813F2D01D13E20F9E725
:10082000FFF722FD0746FF2D03D14148006890F8ED
:100830003250404850F8254024B93846FFF718FD9B
:100840004320E7E7012C04D13846FFF711FD3D2096
:10085000E0E714F8340F3849085C61788843217860
:10086000354A505414F834091146085C30B994F8EC
:10087000361032480078884330490870E06918B172
:100880002046E16900F0CCFA666A16B1304600F005
:1008900009FB0020E06284F8300084F83100284829
:1008A0000078FF2804D226480078401C24490870AC
:1008B0003846FFF7DDFC00F0B2FAFFF7D5FC07463B
:1008C0001F48007820B11E480078401E1C4908705F
:1008D000204600F041F81B480078401E1949087076
:1008E0000020144941F82500A06930B90020616951
:1008F000886115496069086005E0D4E9050148612F
:10090000D4E9051088611148006860610F480460EF
:100910000FA0E0643846FFF7ABFC0E4800780128D2
:1009200001D100F009FC002074E700002500002040
:1009300038000020340C00202A000020290000206C
:100940002600002033000020440000203C0000204E
:100950003F00000032000020704770472DE9F04151
:1009600006460F4614464FF000081548007818B1A7
:1009700012202070BDE8F081FFF776FC8046FF2E44
:1009800003D11048006890F832600F4850F82650A4
:100990002DB94046FFF76CFC43202070EAE7012D9B
:1009A00005D14046FFF764FC43202070E2E7EF6486
:1009B0004046FFF75DFC0020207000BFDAE7000032
:1009C0002500002038000020340C002070477047BC
:1009D0002DE9F04707460D464FF0000A0020286039
:1009E0006860FFF741FC8246FF2F03D11948006879
:1009F00090F83270184850F827402CB95046FFF74D
:100A000037FC4320BDE8F087012C04D15046FFF7A6
:100A10002FFC4320F6E7207C00F0010020B950466F
:100A2000FFF726FC4520EDE70026D4F80C90D4F81B
:100A300008805046FFF71CFC00E0761C58F8041BA9
:100A40000029FAD0B0002860A9EB06008000686099
:100A50000020D7E738000020340C002070B5044691
:100A600010460026051F28462E604FF48056051FAD
:100A700028462E601526051F28462E601426051FC1
:100A800028462E601326051F28462E601226051FB5
:100A900028462E601126051F28462E601026051FA9
:100AA00028462E600926051F28462E600826051FA9
:100AB00028462E600726051F28462E600626051F9D
:100AC00028462E600526051F28462E600426051F91
:100AD00028462E600326051F28462E600226051F85
:100AE00028462E600126051F28462E600026051F79
:100AF00028462E604FF080750560051F28462C6043
:100B0000414E051F28462E604FF01236051F28461D
:100B10002E604FF00336051F28462E604FF0023638
:100B2000051F28462E607610051F28462E60051FDB
:100B3000284629603126051F28462E603026051FCD
:100B400028462E602926051F28462E602826051FC8
:100B500028462E602726051F28462E602626051FBC
:100B600028462E602526051F28462E602426051FB0
:100B700028462E602326051F28462E602226051FA4
:100B800028462E602126051F28462E602026051F98
:100B900028462E601926051F28462E601826051F98
:100BA00028462E601726051F28462E601626051F8C
:100BB00028462E604FF01136051F28462E604FF054
:100BC0001036051F28462E604FF00936051F2846AF
:100BD0002E604FF00836051F28462E604FF007366E
:100BE000051F28462E604FF00636051F28462E604A
:100BF0004FF00536051F28462E604FF00436051FBE
:100C000028462E6070BD0000351300082DE9F04124
:100C100005464FF00008FFF727FB8046FF2D05D162
:100C20002048006890F83250012608E01D4800680E
:100C300090F83200A84201D1012600E000261A48AF
:100C400050F825402CB94046FFF712FB4820BDE87C
:100C5000F081012C04D14046FFF70AFB4320F6E760
:100C600094F834701148C05D94F8351088430F49EA
:100C7000C8550846C05D30B994F836100C48007865
:100C800088430B49087094F8300040F0080084F85D
:100C900030004046FFF7ECFA012E01D100F04CFA8B
:100CA0000020D4E738000020340C00202A00002067
:100CB000290000207047000070B50546002617483F
:100CC000007800B170BD1648007800B1FAE71DB396
:100CD000FFF7CAFA06461348006890F834401248F5
:100CE000005D1049096891F8351088430E49085590
:100CF0000846005D40B90B48006890F836100B4874
:100D0000007888430949087006480068C562304683
:100D1000FFF7AEFA00F010FA00BFD3E7250000207D
:100D200026000020380000202A0000202900002092
:100D300070B5002600F072F8FFF796FA06463148C3
:100D40000068401C2F4908603046FFF791FA2E4892
:100D50000078012853D12D48007820B1012804D013
:100D6000022809D103E001250BE0002509E0012557
:100D700001202649087004E001250020234908705D
:100D800000BF00BF05B970BD2148046833E0FFF71C
:100D90006BFA0646E06A50B3E06A401EE062E06A21
:100DA00028BB94F8300000F0370040B114F8300F41
:100DB00000F0C800207001206070303C02E000208C
:100DC00084F8310094F8300000F0080078B9343429
:100DD000A0781049097808430E49087020780E4918
:100DE000085C6178084314F834190B4A505464695C
:100DF0003046FFF73DFA94F832003F28C7D100BFD4
:100E0000C1E7000050000020320000204800002010
:100E100044000020290000202A000020704770476D
:100E200010B590F8342001F10B039B5C90F835402D
:100E3000A34301F10B04A35423469B5C23B98B7A93
:100E400090F83640A3438B7210BD00002DE9F041AD
:100E50005021114800F03EF900250DE0681C86B2D3
:100E60000D4800EB051400EB0617002020706760AA
:100E70000AA0E060681C85B2042DEFD3064800EBA1
:100E8000051400202070606004A0E060024804495E
:100E90000860BDE8F0810000E40700203F0000008A
:100EA0001400002030B501464A6808682AB9CC68A9
:100EB000606028B10025456002E0106000B142602A
:100EC0008B6800255D6230BD70B5C821114800F007
:100ED00001F900230FE0581C85B203EB83000D4994
:100EE00001EB800405EB850001EB800600202070FB
:100EF0006660581C83B2092BEDD303EB83000549D0
:100F000001EB800400202070606008460249086000
:100F100070BD00001C0700201000002000200A49BE
:100F200008600A4908700A4908700A4908700A49A5
:100F300008700A4908600A4908600A4908600A49B5
:100F400008600A4908707047500000202500002002
:100F50002600002033000020320000200C0000207A
:100F600034000020200000201C000020240000206D
:100F700000210A4A1170002004E00021084A11549F
:100F8000411CC8B20828F8D30021064A1170064A4D
:100F90001170064A1160064A11607047290000204E
:100FA0002A00002027000020280000204000002008
:100FB0003800002070B54FF47C71194800F08AF8B1
:100FC0004FF48071174800F085F8002413E0601C8E
:100FD000C5B2C4EBC40000EB4000114901EB800333
:100FE000C5EBC50000EB400001EB80065E610EA082
:100FF000D864601CC4B20B2CE9D3C4EBC40000EB72
:101000004000074901EB80030020586106A0D86426
:1010100000200649086002480549086070BD0000CC
:10102000340D0020340C00203F000000440000205C
:101030003C00002000B587B00320002180220A4B2D
:10104000CDE90132CDE903104FF6FF703F23074A87
:1010500000900748FFF778FB06AA06A13F20FFF79C
:101060007DFC07B000BD0000340A0020300C0020D9
:101070000D13000875432F4F532D49492049646CC7
:101080006500000000B587B00320002180220A4BD4
:10109000CDE90132CDE903104FF6FE703E23074A39
:1010A00000900748FFF750FB06AA06A13E20FFF775
:1010B00055FC07B000BD000034080020300A0020B5
:1010C0004D13000875432F4F532D49492053746128
:1010D0007400000004E0002200F8012B4A1E91B2C7
:1010E0000029F8D1704700002DE9F041782110481F
:1010F000FFF7F0FF00240DE0601C86B204EB440013
:101100000B4901EBC00506EB460001EBC0072F6061
:10111000601C84B2042CEFD304EB4400044901EBBF
:10112000C00500202860084602490860BDE8F0813B
:10113000241100204C00002010B50024FFF794F883
:10114000044613480078F8B912480078E0B900F076
:101150002DF811481149097850F82100104908600C
:101160000E4800780F49097888420DD00C48006875
:10117000806B401C0A49096888630B480068401C62
:1011800009490860FFF789F82046FFF771F810BD9C
:101190002500002026000020340C0020280000201C
:1011A00040000020270000200C0000200649074ACC
:1011B0001278885C0649095C034A515C01EBC00166
:1011C000044A117070470000CE1800082900002062
:1011D0002A000020280000202DE9F84F05460F4680
:1011E00090469946DDE90AAB00200090FFF73CF8F5
:1011F00000903F480468002C74D0183454F8040C54
:101200003B4908600098FFF733F844F8187CA5764E
:10121000002020766076606144F814BC44F80CAC81
:1012200044F8108C0C9824F8080C24F8069C002034
:10123000E077E810207705F00700E076217F0120B5
:101240008840A077E17E01208840607700206060C0
:10125000E060A0602062A0626062E062206325A07E
:101260006063183C002606E0002104F1500040F8BD
:101270002610701CC6B2002EF6D02046FFF712FAD8
:101280002046FFF7BDFAFEF7EFFF00901A4840F83E
:1012900025401A48006860610020A0611748006876
:1012A00010B1164800688461144804603434A07892
:1012B0001349097808431249087020781149085CDD
:1012C0006178084314F834190E4A50540E480078D7
:1012D000401C0D4908700098FEF7CAFF0020BDE8C9
:1012E000F88FFFE70098FEF7C3FF4220F7E7000002
:1012F0003C0000203F000000340C0020440000208F
:10130000290000202A00002033000020002400BF14
:1013100000BFFEF7A9FF044605480068401C0449C9
:1013200008602046FEF7A4FFFFF717FBF1E7000077
:101330003400002010B504480068FFF747FBFF2089
:10134000FFF760FA10BD000038000020002400BF45
:1013500002E02820FFF7B0FC194800780028F8D0F8
:10136000184800686421B0FBF1F01649086008468F
:10137000006828B9002014490870FF20FFF746FCD8
:1013800000BFFEF771FF044610480068104908606E
:1013900000200E4908602046FEF76AFF0C480068EE
:1013A00008490968B0FBF1F0C0F164000649087013
:1013B000FFF70DFB00F00EF81420FFF77DFCE0E7CF
:1013C000240000201C000020180000203400002011
:1013D000200000207CB5002514E069462846FFF770
:1013E000F7FA064666B9094850F8254044B1012C81
:1013F00006D0D4E9020100EB810060640198A0648A
:10140000681CC5B23F2DE8D97CBD0000340C00201B
:1014100002F0010343B102F002032BB102E0491EC6
:10142000002308C00029FAD17047000029B1064AFC
:1014300012680243044B1A6004E0034A12688243B4
:10144000014B1A60704700003038024070470000BE
:101450000CB50020019000903448006840F48030C2
:101460003249086000BF3148006800F40030009045
:101470000198401C0190009818B90198B0F5A04F50
:10148000F1D12A48006800F4003010B1012000902A
:1014900001E0002000900098012846D12348403008
:1014A000006840F0805021494031086020480068C1
:1014B00040F440401E4908601C48083000681B4941
:1014C000083108600846006840F40040086008469B
:1014D000006840F4A05008601648091F0860081F03
:1014E000006840F08070091F086000BF0F48006866
:1014F00000F000700028F9D040F205700E49086035
:101500000A480830006820F00300084908310860E4
:101510000846006840F00200086000BF0348083039
:10152000006800F00C000828F8D10CBD003802401B
:101530000070004019544007003C0240042808D1C4
:101540004FF0E021096941F004014FF0E022116100
:1015500007E04FF0E021096921F004014FF0E0229B
:101560001161704710B505480078012805D1FEF7D4
:10157000A5FFFFF7DDFBFEF7B3FF10BD3200002033
:1015800010B51548006840F470001349086013480E
:10159000006840F001001149086000200F4908313F
:1015A00008600E4800680E4908400C4908600D4864
:1015B000091D0860081F006820F48020091F0860CA
:1015C000002006490C310860FFF742FF4FF0006031
:1015D00001498039086010BD88ED00E00038024004
:1015E000FFFFF6FE1030002410B5FEF767FF40F253
:1015F00025511E4800F040F810B31C4800F066F872
:10160000C4B21B48008800F40040C8B918480088DC
:1016100000F4804060B10A2C03D0002014490880F7
:1016200020E01348008840F400401149088019E088
:101630000D2C06D10E48008840F480400C490880EB
:1016400010E00B480088C0F30D000A490C5408480C
:101650000088401C0649088008460088C72801DD2C
:1016600000200880FEF73CFF10BD00000010014084
:10167000080000205400002070B50246002400231A
:101680000025002040F66A16B14200D100BFC1F328
:10169000421501F01F03012606FA03F3012D02D1C2
:1016A0009689334006E0022D02D1168A334001E0CC
:1016B000968A33400C12012606FA04F41688344048
:1016C00013B10CB1012000E0002070BD01468888F4
:1016D000C0F30800704700BFFEE700BF704700007E
:1016E00070B504466FF00400FFF728FFE11704EB24
:1016F0005171C1F3C7010D4A1170E11704EB51712B
:10170000CD1041F2883045430520094908804FF04B
:10171000E020006940F002004FF0E0210861084637
:101720004561006940F00100086170BD00000020C3
:101730000200002070B504460F480078A0B10F48A1
:10174000007888B90E480088844206DB0C4800887F
:1017500094FBF0F5284600F01DF80948008894FB3A
:10176000F0F100FB114084B24FF47A7104FB01F0F8
:1017700000F016F870BD00003200002025000020A7
:101780000200002010B5FEF7F3FE10BD10B5FEF705
:101790000FFF10BD10B504462046FFF78DFA10BDAF
:1017A0002DE9F047074600264FF0E020D0F81490CE
:1017B0001048007807FB00F8FFF7E4FF4FF0E02047
:1017C000856911E04FF0E0208469AC420CD0AC4256
:1017D00002D2281B064403E0A9EB04002844064477
:1017E0002546464500D300E0ECE700BFFFF7CEFFFB
:1017F000BDE8F0870000002010E04FF400710848B9
:10180000FEF71BFE5020FFF795FF4FF400710448D0
:10181000FEF711FE4FF46670FFF78CFFEDE7000056
:101820000014024011E04FF480610848FEF705FE05
:101830004FF49670FFF77EFF4FF480610348FEF788
:10184000FAFD4FF49670FFF775FFECE700140240C5
:1018500010B5A820FFF744FFFEF7F4FDFEF715FED4
:101860000A23044A00210448FEF71EFFFEF7D0FEBB
:10187000002010BD180300207D18000870B5044634
:10188000002500BFFEF7E8FEFEF7EEFC0546072345
:10189000084A00210848FEF707FF0623074A0021EF
:1018A0000748FEF701FF0A20FFF7B0F92846FEF7C8
:1018B000DFFC70BD18050020F9170008180700208C
:1018C000251800084FF04070E1EE100A7047000044
:1018D00001000200010003000100020001000400F9
:1018E00001000200010003000100020001000500E8
:1018F00001000200010003000100020001000400D9
:1019000001000200010003000100020001000600C6
:1019100001000200010003000100020001000400B8
:1019200001000200010003000100020001000500A7
:101930000100020001000300010002000100040098
:101940000100020001000300010002000100070085
:101950000100020001000300010002000100040078
:101960000100020001000300010002000100050067
:101970000100020001000300010002000100040058
:101980000100020001000300010002000100060046
:101990000100020001000300010002000100040038
:1019A0000100020001000300010002000100050027
:1019B0000100020001000300010002000100040018
:1019C000010002000100030001000200010000000C
:1019D000F01900080000002054000000C4010008B5
:1019E000441A000854000020AC170000E001000871
:1019F00000000000000000000000000000000000E7
:101A000000000000000000000000000000000000D6
:101A100000000000000000000000000000000000C6
:101A200000000000000000000000000000000000B6
:101A300000000000000000000000000000000000A6
:041A400000000000A2
:040000050800018965
:00000001FF
